:100000000C945D000C9485000C9485000C94850084
:100010000C9485000C9485000C9485000C9485004C
:100020000C9485000C9485000C9485000C9485003C
:100030000C9485000C9485000C9485000C9485002C
:100040000C940D050C9485000C947D050C945705BB
:100050000C9485000C9485000C9485000C9485000C
:100060000C9485000C94850000000008000201003B
:100070000003040700000000000000000000000072
:10008000250028002B0000000000240027002A0083
:10009000040404040404040402020202020203032E
:1000A0000303030301020408102040800102040836
:1000B0001020010204081020AF0511241FBECFEF4D
:1000C000D8E0DEBFCDBF11E0A0E0B1E0ECE9F5E1A2
:1000D00002C005900D92A437B107D9F722E0A4E73A
:1000E000B1E001C01D92AA34B207E1F710E0CDE5FE
:1000F000D0E004C02197FE010E94C10ACC35D1078F
:10010000C9F70E94FA050C94CC0A0C94000090E008
:10011000FC01EC55FF4F2491FC01E057FF4F849107
:10012000882399F090E0880F991FFC01EA57FF4F50
:10013000A591B491FC01E458FF4F859194918FB73C
:10014000F894EC91E22BEC938FBF089590E0FC01C2
:10015000E859FF4F2491FC01EC55FF4F3491FC010D
:10016000E057FF4FE491EE2309F43CC0222339F11C
:10017000233091F038F42130A9F0223001F584B514
:100180008F7D12C0273091F02830A1F02430B9F4CF
:10019000809180008F7D03C0809180008F77809355
:1001A00080000DC084B58F7784BD09C08091B000F8
:1001B0008F7703C08091B0008F7D8093B000F0E016
:1001C000EE0FFF1FE458FF4FA591B4919FB7F8942D
:1001D000611104C08C913095382302C0EC913E2B04
:1001E0003C939FBF08958E3008F08E5087708064D6
:1001F00080937C0080917A00806480937A00809163
:100200007A0086FDFCCF809178002091790090E003
:10021000922B08953FB7F8948091910190919201AB
:10022000A0919301B091940126B5A89B05C02F3FE2
:1002300019F00196A11DB11D3FBFBA2FA92F982F0C
:100240008827820F911DA11DB11DBC01CD0142E087
:10025000660F771F881F991F4A95D1F708958F92CF
:100260009F92AF92BF92CF92DF92EF92FF926B017B
:100270007C010E940A014B015C01C114D104E1041C
:10028000F104F1F00E940A01DC01CB0188199909FF
:10029000AA09BB09883E9340A105B10570F321E08E
:1002A000C21AD108E108F10888EE880E83E0981E92
:1002B000A11CB11CC114D104E104F10419F7DDCF74
:1002C000FF90EF90DF90CF90BF90AF909F908F9076
:1002D0000895CF92DF92EF92FF920F931F93CF93E7
:1002E000DF936C017A018B01C0E0D0E0CE15DF0511
:1002F00081F0D8016D918D01D601ED91FC910190B5
:10030000F081E02DC6010995892B11F02196EECFE1
:100310007E01C701DF91CF911F910F91FF90EF9068
:10032000DF90CF900895FC01538D448D252F30E050
:10033000842F90E0821B930B541710F0CF960895F2
:1003400001970895FC01918D828D981761F0828D3F
:10035000DF01A80FB11D5D968C91928D9F5F9F73F9
:10036000928F90E008958FEF9FEF0895FC01918D9B
:10037000828D981731F0828DE80FF11D858D90E008
:1003800008958FEF9FEF0895FC01918D228D892FA5
:1003900090E0805C9F4F821B91098F73992708958D
:1003A00085E991E00E94C40121E0892B09F420E055
:1003B000822F0895FC01848DDF01A80FB11DA35A7F
:1003C000BF4F2C91848D90E001968F739927848F75
:1003D000A689B7892C93A089B1898C918370806498
:1003E0008C93938D848D981306C00288F389E02D39
:1003F00080818F7D80830895EF92FF920F931F93EA
:10040000CF93DF93EC0181E0888F9B8D8C8D9813C7
:1004100005C0E889F989808185FD26C0F62E0B8DFF
:1004200010E00F5F1F4F0F731127E02E8C8DE81225
:100430000CC00FB607FCFACFE889F989808185FFE7
:10044000F5CFCE010E94DA01F1CF8B8DFE01E80FCE
:10045000F11DE35AFF4FF0829FB7F8940B8FEA89A2
:10046000FB89808180620AC09FB7F894EE89FF897A
:100470006083E889F98980818370806480839FBF6D
:1004800081E090E0DF91CF911F910F91FF90EF906D
:100490000895CF93DF93EC01888D8823C9F0EA8912
:1004A000FB89808185FD05C0A889B9898C9186FD6D
:1004B0000FC00FB607FCF5CF808185FFF2CFA8896A
:1004C000B9898C9185FFEDCFCE010E94DA01E7CF8B
:1004D000DF91CF91089580E090E0892B29F00E9470
:1004E000D00181110C9400000895CF93DF93EC01AB
:1004F00060E08E810E94A60061E08E810E94A600CD
:1005000060E08E810E94A6008BE891E00197F1F7F0
:10051000DF91CF910895CF92DF92EF92FF920F93E8
:100520001F93CF93DF936C017C0187E0E80EF11CF1
:10053000C0E0D0E0062F10E0B8010C2E02C0759587
:1005400067950A94E2F76170F70181917F010E943B
:10055000A6002196C430D10579F7C601DF91CF916D
:100560001F910F91FF90EF90DF90CF900C94750248
:10057000CF92DF92EF92FF920F931F93CF93DF936F
:10058000EC01F62E642F8C810E94A6008D818F3F96
:1005900019F060E00E94A6008F850F2D10E084FF07
:1005A00025C06E0187E0C80ED11CE12CF12CB801EA
:1005B0000E2C02C0759567950A94E2F76170F601FA
:1005C00081916F010E94A600FFEFEF1AFF0A88E0F9
:1005D000E816F10461F7CE01DF91CF911F910F91E1
:1005E000FF90EF90DF90CF900C947502B80184E0FB
:1005F000759567958A95E1F7CE010E948B026F2D64
:10060000CE01DF91CF911F910F91FF90EF90DF907E
:10061000CF900C948B0240E0682F82E392E00C9420
:10062000B802CF93DF93623028F090914102986036
:1006300090934102609345021092460290E4909399
:1006400047028093480290E0805C9F4F809349026C
:10065000809136020E948700809137028F3F11F00F
:100660000E948700809138020E948700C2E3D2E096
:100670009E01225332408091410284FD03C084E0F8
:1006800090E002C088E090E021962817390724F412
:100690008E810E948700ECCF8BE39DE00197F1F7FC
:1006A00060E0809136020E94A60060E080913802EE
:1006B0000E94A600809137028F3F19F060E00E94EF
:1006C000A6008091410284FD20C063E082E392E0B5
:1006D0000E948B02CBE4D6E4CE010197F1F763E0F0
:1006E00082E392E00E948B022197F1F763E082E3BC
:1006F00092E00E948B0283E592E00197F1F762E0BD
:1007000082E392E00E948B0215C080620E940B037C
:100710008BE496E40197F1F78091410280620E9498
:100720000B0383E592E00197F1F78091410280622B
:100730000E940B038091410280620E940B0384E0BF
:10074000809342028CE00E940B0381E00E940B0325
:100750008BE39FE10197F1F782E08093430286E00B
:10076000DF91CF910C940B03643008F063E090911B
:100770004502691710F06FEF690FE62FF0E0EE5CAD
:10078000FD4F9489890F80680C940B0341E00E940F
:10079000B80281E090E00895089580E090E0089527
:1007A000009769F0FC0101900020E9F73197AF0153
:1007B000481B590BBC0182E392E00C94690180E074
:1007C00090E008950C94D0032F923F924F925F9245
:1007D0006F927F928F929F92AF92BF92CF92DF9251
:1007E000EF92FF920F931F93CF93DF93CDB7DEB7B6
:1007F000A5970FB6F894DEBF0FBECDBF4B015C01CD
:10080000F42E9B01AC010E949A0A882319F08EE114
:1008100091E027C024013501E89477F82FEF3FEFEE
:100820004FE75FE7C301B2010E949A0A81110DC030
:100830002FEF3FEF4FE75FE7C301B2010E94D008FF
:1008400018161CF482E291E00CC02FEF3FEF4FE747
:100850005FE4C501B4010E94280A18162CF486E250
:1008600091E00E94D003BEC02FEF3FEF4FE75FEC57
:10087000C501B4010E94D00887FDF1CF20E030E02F
:10088000A901C501B4010E94D00887FF0FC041E053
:100890006DE282E392E00E94B802B7FAB094B7F832
:1008A000B09481E090E09BA38AA302C01BA21AA28D
:1008B00010E060E070E080E09FE3F11641F020E09E
:1008C00030E040E251E40E94D5081F5FF6CFA50159
:1008D00094010E9464084B015C010E944709762E36
:1008E000C72ED82EE92E19A2262F372F482F592F81
:1008F0008E010F5D1F4F0CA3612E9AE0292E312C23
:10090000412C512CCA01B901A20191010E949F0AF8
:10091000605DF80162938F01211531054105510594
:1009200089F7CF010E94D0030AA11BA1080F191F4C
:10093000FF2009F456C0672D7C2D8D2D9E2D0E9421
:1009400076099B01AC01C501B4010E9463084B010B
:100950005C0141E06EE282E392E00E94B8020F5F28
:100960001F4F8AE0282E312C412C512C20E030E002
:1009700040E251E4C501B4010E942D0A4B015C0123
:100980000E9447099B0140E050E019A2CCA0D62C60
:10099000762E3AA34DA3E52ECA01B901A201910119
:1009A0000E949F0A605DF60162936F012115310577
:1009B0004105510589F7CF010E94D003080F191F87
:1009C000672D7AA18DA19E2D0E9476099B01AC0115
:1009D000C501B4010E9463084B015C01FA94F11057
:1009E000C5CFC801A5960FB6F894DEBF0FBECDBF28
:1009F000DF91CF911F910F91FF90EF90DF90CF90FB
:100A0000BF90AF909F908F907F906F905F904F902E
:100A10003F902F9008950E94C70A1F920F920FB621
:100A20000F9211242F933F938F939F93AF93BF9374
:100A300080918D0190918E01A0918F01B0919001D4
:100A400030918C0123E0230F2D3720F40196A11D56
:100A5000B11D05C026E8230F0296A11DB11D2093EC
:100A60008C0180938D0190938E01A0938F01B093A0
:100A700090018091910190919201A0919301B09188
:100A800094010196A11DB11D809391019093920153
:100A9000A0939301B0939401BF91AF919F918F91D7
:100AA0003F912F910F900FBE0F901F9018951F929E
:100AB0000F920FB60F9211242F933F934F935F9392
:100AC0006F937F938F939F93AF93BF93EF93FF9316
:100AD00085E991E00E94DA01FF91EF91BF91AF911A
:100AE0009F918F917F916F915F914F913F912F9146
:100AF0000F900FBE0F901F9018951F920F920FB678
:100B00000F9211242F938F939F93EF93FF93E09174
:100B1000A501F091A6018081E091AB01F091AC01BB
:100B200082FD12C090818091AE018F5F8F73209102
:100B3000AF01821751F0E091AE01F0E0EB56FE4FAD
:100B4000958F8093AE0101C08081FF91EF919F91BD
:100B50008F912F910F900FBE0F901F901895E5E980
:100B6000F1E01382128288EE93E0A0E0B0E084838B
:100B70009583A683B78384E091E09183808385EC9D
:100B800090E09587848784EC90E09787868780EC57
:100B900090E0918B808B81EC90E0938B828B82EC48
:100BA00090E0958B848B86EC90E0978B868B118EF2
:100BB000128E138E148EE2E3F2E01382128286E12B
:100BC00091E0918380838DE084838FEF85838CE037
:100BD00086838BE087838AE0808789E0818788E04D
:100BE00082871386148615861686178661E080E153
:100BF0000C941103789484B5826084BD84B58160BF
:100C000084BD85B5826085BD85B5816085BD8091D7
:100C10006E00816080936E0010928100809181004F
:100C20008260809381008091810081608093810047
:100C3000809180008160809380008091B100846009
:100C40008093B1008091B00081608093B00080916A
:100C50007A00846080937A0080917A008260809329
:100C60007A0080917A00816080937A0080917A0086
:100C7000806880937A001092C10064E084E10E9451
:100C80001103E091A501F091A60182E08083E0913B
:100C9000A101F091A2011082E091A301F091A401C1
:100CA0008FEC80831092AD01E091A901F091AA012F
:100CB00086E08083E091A701F091A80180818061A6
:100CC0008083E091A701F091A801808188608083F2
:100CD000E091A701F091A801808180688083E09174
:100CE000A701F091A80180818F7D808387E00E9419
:100CF000870086E00E94870085E00E9487008FE0E1
:100D00000E94F300BC01990F880B990B0E9478098F
:100D100020E030E040EA5BE30E942D0A20E030E072
:100D200040E351E40E942D0A609388017093890189
:100D300080938A0190938B0181E10E94F300BC01B2
:100D4000990F880B990B0E94780920E030E040EA67
:100D50005BE30E942D0A20E030E040E351E40E9472
:100D60002D0A6B017C01609384017093850180934F
:100D7000860190938701C8EED3E08EE00E94F300D5
:100D8000BC01990F880B990B0E9478092EE230E97B
:100D900040EA5BE30E942D0A20918001309181019D
:100DA00040918201509183010E9464084B015C01D3
:100DB00060938001709381018093820190938301FD
:100DC00061E070E080E090E00E942F012197A9F699
:100DD00020E030E04AE754E4C501B4010E94D508A0
:100DE00060938001709381018093820190938301CD
:100DF00020E030E040E250E40E94630824EA30E75B
:100E00004DE35EE30E94D5084B015C0160937C01D9
:100E100070937D0180937E0190937F01C8EED3E0B3
:100E200080E10E94F300BC01990F880B990B0E948E
:100E300078092EE230E940EA5BE30E942D0A209116
:100E400078013091790140917A0150917B010E94A3
:100E500064082B013C0160937801709379018093C1
:100E60007A0190937B0161E070E080E090E00E9465
:100E70002F012197A9F620E030E04AE754E4C301AE
:100E8000B2010E94D5086093780170937901809334
:100E90007A0190937B0120E030E040E250E40E9430
:100EA000630824EA30E74DE35EE30E94D5086093CF
:100EB0007401709375018093760190937701A50179
:100EC000940160E070E080E090E40E94D5084B015E
:100ED0005C012AE939E949E95EE30E942D0AA5018E
:100EE00094010E9464084B015C0160E080E00E9474
:100EF000B4038AE291E00E94E2036091880170915C
:100F0000890180918A0190918B0142E00E94E40363
:100F10008EE291E00E94E20380E391E00E94E2030E
:100F200060E089E00E94B40382E391E00E94E20362
:100F300060917C0170917D0180917E0190917F0193
:100F400042E00E94E40388E391E00E94E20380E330
:100F500091E00E94E20362E080E00E94B4038AE331
:100F600091E00E94E203609184017091850180917B
:100F700086019091870142E00E94E4038EE291E0B5
:100F80000E94E20380E391E00E94E20362E089E0D4
:100F90000E94B4038EE391E00E94E2036091740129
:100FA00070917501809176019091770142E00E94E5
:100FB000E40380E391E00E94E20363E080E00E94AA
:100FC000B40384E491E00E94E203A7019601C70103
:100FD000B6010E94640826E636E646E65FE30E9414
:100FE0002D0A20E030E040E250E40E94D50842E0C3
:100FF0000E94E40384E591E00E94E20380E391E033
:101000000E94E203C0907C01D0907D01E0907E01BF
:10101000F0907F012AE037ED43E25CE3C701B601BF
:101020000E94280A18169CF429E23CE54FE85DE38B
:10103000C701B6010E94D00887FF09C061E080E0C7
:101040000E94B40386E591E00E94E2030DC061E0D6
:1010500080E00E94B40387E691E00E94E20342E050
:10106000C501B4010E94E40384E591E00E94E2031B
:1010700080E391E00E94E20361E085E00E94A60027
:1010800060E086E00E94A60061E087E00E94A60082
:1010900064E670E080E090E00E942F0160E085E06F
:1010A0000E94A60061E086E00E94A60060E087E062
:1010B0000E94A60064E670E080E090E00E942F01AC
:1010C0000E946B021CCE5058BB27AA270E947B08A7
:1010D0000C94EE090E94E00938F00E94E70920F024
:1010E00039F49F3F19F426F40C94DD090EF4E095D1
:1010F000E7FB0C94D709E92F0E94FF0958F3BA17B0
:10110000620773078407950720F079F4A6F50C941D
:10111000210A0EF4E0950B2EBA2FA02D0B01B90178
:1011200090010C01CA01A0011124FF27591B99F05D
:10113000593F50F4503E68F11A16F040A22F232F69
:10114000342F4427585FF3CF469537952795A795B9
:10115000F0405395C9F77EF41F16BA0B620B730B60
:10116000840BBAF09150A1F0FF0FBB1F661F771FD1
:10117000881FC2F70EC0BA0F621F731F841F48F486
:10118000879577956795B795F7959E3F08F0B0CF0F
:101190009395880F08F09927EE0F979587950895F6
:1011A0000E94B30908F481E008950E94E9080C94B4
:1011B000EE090E94E70958F00E94E00940F029F486
:1011C0005F3F29F00C94D70951110C94220A0C941A
:1011D000DD090E94FF0968F39923B1F3552391F3C8
:1011E000951B550BBB27AA2762177307840738F096
:1011F0009F5F5F4F220F331F441FAA1FA9F335D0F3
:101200000E2E3AF0E0E832D091505040E695001CA6
:10121000CAF72BD0FE2F29D0660F771F881FBB1F60
:10122000261737074807AB07B0E809F0BB0B802D3E
:10123000BF01FF2793585F4F3AF09E3F510578F06A
:101240000C94D7090C94220A5F3FE4F3983ED4F340
:10125000869577956795B795F7959F5FC9F7880F3E
:10126000911D9695879597F90895E1E0660F771F90
:10127000881FBB1F621773078407BA0720F0621B21
:10128000730B840BBA0BEE1F88F7E09508950E944C
:10129000070A88F09F5798F0B92F9927B751B0F0F7
:1012A000E1F0660F771F881F991F1AF0BA95C9F7EA
:1012B00014C0B13091F00E94210AB1E008950C945D
:1012C000210A672F782F8827B85F39F0B93FCCF310
:1012D000869577956795B395D9F73EF49095809567
:1012E000709561957F4F8F4F9F4F0895E89409C087
:1012F00097FB3EF490958095709561957F4F8F4F49
:101300009F4F9923A9F0F92F96E9BB279395F6955E
:10131000879577956795B795F111F8CFFAF4BB0FDC
:1013200011F460FF1BC06F5F7F4F8F4F9F4F16C040
:10133000882311F096E911C0772321F09EE8872FCA
:10134000762F05C0662371F096E8862F70E060E086
:101350002AF09A95660F771F881FDAF7880F9695FF
:10136000879597F90895990F0008550FAA0BE0E8A3
:10137000FEEF16161706E807F907C0F01216130657
:10138000E407F50798F0621B730B840B950B39F497
:101390000A2661F0232B242B252B21F408950A26FD
:1013A00009F4A140A6958FEF811D811D089597F93D
:1013B0009F6780E870E060E008959FEF80EC0895FB
:1013C00000240A9416161706180609060895002424
:1013D0000A9412161306140605060895092E03949E
:1013E000000C11F4882352F0BB0F40F4BF2B11F412
:1013F00060FF04C06F5F7F4F8F4F9F4F089557FD71
:101400009058440F551F59F05F3F71F04795880F72
:1014100097FB991F61F09F3F79F087950895121609
:1014200013061406551FF2CF4695F1DF08C01616B5
:1014300017061806991FF1CF869571056105089466
:101440000895E894BB2766277727CB0197F908957D
:101450000E94B30908F48FEF08950E94400A0C948B
:10146000EE090E94E00938F00E94E70920F0952378
:1014700011F00C94D7090C94DD0911240C94220A64
:101480000E94FF0970F3959FC1F3950F50E0551F1F
:10149000629FF001729FBB27F00DB11D639FAA27C9
:1014A000F00DB11DAA1F649F6627B00DA11D661F18
:1014B000829F2227B00DA11D621F739FB00DA11D39
:1014C000621F839FA00D611D221F749F3327A00DF3
:1014D000611D231F849F600D211D822F762F6A2F8F
:1014E00011249F5750409AF0F1F088234AF0EE0FF4
:1014F000FF1FBB1F661F771F881F91505040A9F721
:101500009E3F510580F00C94D7090C94220A5F3F4E
:10151000E4F3983ED4F3869577956795B795F7955C
:10152000E7959F5FC1F7FE2B880F911D96958795D4
:1015300097F908950E94B309880B990B0895A1E2C9
:101540001A2EAA1BBB1BFD010DC0AA1FBB1FEE1F3D
:10155000FF1FA217B307E407F50720F0A21BB30B88
:10156000E40BF50B661F771F881F991F1A9469F704
:1015700060957095809590959B01AC01BD01CF0160
:101580000895EE0FFF1F0590F491E02D099481E07E
:0C15900090E0F8940C94CC0AF894FFCF83
:10159C0000000000FC01690193014902C401A20191
:1015AC00B60100000000C6036901CD03CC036E61D7
:1015BC006E00696E66006F76660056633D005600DD
:1015CC0020002C2049633D00410056643D002C2036
:1015DC0049643D004469736368617267652E5469A0
:1015EC006D653D0068004368617267652E54696DD6
:1015FC00653D302E3030004368617267652E54694A
:04160C006D653D00CB
:00000001FF
